:020000040800F2
:10000000B0040020D9000008E50F00087B0F0008AD
:1000100000000000000000000000000000000000E0
:10002000000000000000000000000000E90F0008D0
:100030000000000000000000E70F0008EB0F0008C0
:10004000090100080000000009010008090100087A
:100050000901000809010008090100080901000858
:10006000000000000901000809010008090100085A
:1000700009010008090100080000000065100008DF
:100080000000000000000000000000000000000070
:1000900055100008000000000000000009010008E1
:1000A000000000000901000800000000000000003E
:1000B000090100080901000800000000000000001C
:1000C0000448854600F0E4F9004800477114000830
:1000D000C046C046B00400200C4880F308880C4895
:1000E0000168090E0B4A914205D10B480B4901608A
:1000F0000B480C4901600C4880470C480047FEE75C
:10010000FEE7FEE7FEE7FEE7FEE70000B0040020A2
:10011000040000001F000000341002400100000035
:10012000000001400000000051100008C10000085C
:1001300030B50B46014600202022012409E00D467F
:10014000D5409D4205D31D469540491B2546954007
:1001500040191546521E002DF1DC30BDF0B51FB41C
:100160000646002082B005464024019100901BE025
:10017000019922460F46304600F038F9049A059B53
:10018000801A994110D310461946224600F016F8FD
:10019000361A8F410197224601200021009F00F06E
:1001A0000DF838184D4100902046641E0028DFDC11
:1001B000019B00982946324607B0F0BD10B5202AB1
:1001C00004DB0146203A9140002010BD91402023DD
:1001D0009C1A0346E3401943904010BDD2B201E09F
:1001E0000270401C491EFBD270470022F6E710B592
:1001F00013460A4604461946FFF7F0FF204610BD95
:10020000F8B502464A40D40F42004B0052085B0842
:100210009A4202D20246084611464A0023D0C30D34
:100220004A00DDB2120EAD1A202D35DA4902012640
:10023000490AF6058A19002C00D0524220214F1B92
:100240001146B9402A411018C20D9A4221D0002C03
:1002500017D0012D08DCDA05801AD20F8019D207D9
:10026000DBB200F0DCF8F8BDDA05801A01234000AB
:100270001B06C01880185A428018CA0F1043490044
:1002800007E04908C2071143DA05801A80194008BF
:10029000801800F0BCF8F8BD61000122511A001B63
:1002A000F7E70122D2075140AAE70122D2075040C6
:1002B000A6E7024670B54A40D30FDB0740002DD0B9
:1002C0004A002AD0010E140E000212020919400A37
:1002D000520A8418E50104465443000A120A2E0407
:1002E0005043A4194219200CC543AA18120C012529
:1002F000AD03521C521912047F39240400D0521C41
:10030000104301D44000491EC2B20C06C009201897
:10031000401C4008802A02D003E0002070BD400845
:100320004000002900DA0020184370BD70B5024675
:100330004A40D50F40004A00ED0740085208002807
:1003400014D0002A12D0C40DD30D41020120C005E3
:100350005202490A520AE41A091812187D349142CD
:1003600001D3641C00E04900002C01DA002070BDBC
:100370000023914201D3891A034340084900002811
:10038000F7D100290AD0914202D10121C90705E025
:10039000914201D2012101E00121C943E005C018C9
:1003A000401900F034F870BD420005D04200120E32
:1003B00052428A4201DB00207047C9050818704785
:1003C000C217C10F504010B54018CA07962300212C
:1003D00000F025F810BD00000122D207002800DB44
:1003E000101A002900DB511A8142704710B5202AEB
:1003F00004DB0846203AD040002110BD0B46D34014
:10040000D0402024A21A91400843194610BD00296B
:1004100004DA401C490001D140084000704770B424
:100420000024050C05D11024000402D1002921D09C
:100430001124050E01D100020834050F01D100017D
:10044000241D850F01D18000A41C002801DB400081
:10045000641C002908D020252E1B0D46F540A14024
:1004600000D001212943084301061B1B000ADB1DA4
:1004700002D5002070BC7047DB05181880180029D1
:10048000F8DA401C4900F5D170BC400840007047C4
:10049000064C0125064E05E0E36807CC2B430C3CD7
:1004A00098471034B442F7D3FFF70EFE90150008BA
:1004B000B015000801488068704700000400002063
:1004C0000248816802788918816070470400002022
:1004D00010B50848002401684022114301602046FD
:1004E00000F00AF8002801D0012401E000F03CF8F7
:1004F000204610BD0020024000B5014687B0002212
:10050000142000F049F8142000F03AF81148416B2B
:1005100004221143416305A9684600F017F900F071
:1005200035F90D49FFF704FE0D490C4A0A600D4AE2
:10053000401ECA604860002008618860084600F0DC
:10054000B1FB002802D0012007B000BD044800F034
:10055000DFFBF9E70010024040420F0000080140B5
:1005600070000020E70300000448416B01221143A2
:100570004163816B020411438163704700100240A4
:10058000002805DBC106C90E01208840014908602A
:100590007047000000E100E010B500F0DFFD10BD85
:1005A00002480169022211430161704700ED00E039
:1005B000F8B50E46050038D05E480068C007C00F89
:1005C000B04214D25B4C20684008400030432060A9
:1005D000FFF770FF074605E0FFF76CFFC11B5648A9
:1005E00081427AD82068C007C00FB042F4D1287881
:1005F000524C800705D5E068F0218843A96808437C
:10060000E0602878C00752D06868022806D0032826
:1006100007D0216801280AD0890504E021688903F0
:1006200001E021688901002903DB0120F8BD4907A9
:10063000F9E7E168890889000143E160FFF73AFFC3
:100640000746686802280AD0032814D001281ED063
:1006500029E0FFF72FFFC11B374881423DD8E068F2
:100660000007800F0228F4D121E0FFF723FFC11B10
:100670003148814231D8E0680007800F0328F4D167
:1006800015E0FFF717FFC11B2B48814225D8E06812
:100690000007800F0128F4D109E0FFF70BFFC11B11
:1006A0002548814219D8E0680007800FF5D121481C
:1006B0000168C907C90FB14217D901684908490043
:1006C00031430160FFF7F6FE074608E005E0FFF75B
:1006D000F1FEC11B1848814201D90320F8BD15481D
:1006E0000068C007C00FB042F1D12878400706D596
:1006F000E068072109028843E9680843E060287838
:10070000000707D5E0680721C90288432969C900A5
:100710000843E06000F04AF8E168094A0906090F59
:10072000515CC8400749086007480068FFF7E4FECD
:10073000F8BD0000002002408813000000100240B5
:100740002C150008100000200800002010B50F2212
:1007500002600C4AD3689B079B0F4360D368F02468
:1007600023408360D46807231B021C40C460D26806
:10077000D2081A40026104480068C007C00F086030
:1007800010BD00000010024000200240044805494E
:100790000068C968044A8904490F515CC840704721
:1007A00010000020001002404515000870B51A4ADC
:1007B000D3681A490C2018408D0004280CD04E0034
:1007C000082810D00C2810D050680004410F0120D8
:1007D000C003491C884070BD1068C00601D508469A
:1007E00070BD284670BD304670BD98020C4C000F9D
:1007F000205C1B029C0FD368641CDB0301D53146CF
:1008000003E01268D20600D4294600F08EFC22468E
:100810000023FFF7A3FC70BD0010024000093D005B
:100820003C150008FEB505007ED0F74CE7680C20AB
:10083000E66807400120000406402878C00747D03A
:10084000082F05D00C2F0AD101200004864206D1C2
:10085000206880033CD568680028E5D038E0012096
:1008600069680004814203D121680143216011E0DD
:10087000052301221B0492049942216802D11143ED
:100880002160F1E7814321602168014000912068E7
:1008900090432060686800280DD0FFF70BFE0090A1
:1008A00005E0FFF707FE0099401A64287ED820680B
:1008B0008003F6D50CE0FFF7FDFD009005E0FFF7A3
:1008C000F9FD0099401A6428F0D820688003F6D416
:1008D000287880075DD5E868810604D52268202144
:1008E0000A43226088430923042F0DD00C2F01D125
:1008F000002E09D000283CD0216899430143216093
:10090000FFF7D8FD064628E02168490701D50028F1
:100910008AD061681F22120291432A691202114390
:1009200061602168994300E091E101432160FFF794
:100930003DFFE16809060A0FB449895CC840B44923
:100940000860B4480068FFF7D7FD002874D120E0A4
:10095000FFF7B0FD801B0228A8D820684007F7D514
:1009600060681F2109028843296909020843606001
:100970000FE02068400840002060FFF79BFD06461E
:1009800004E0FFF797FD801B02288FD820684007FE
:10099000F7D42878C00661D5002F0DD0A8690028AB
:1009A0004BD02068FF210131084300E0C6E0206001
:1009B000FFF780FD06462DE02068800502D5A86976
:1009C0000028A5D06068072149038843296A0843A5
:1009D00060606068297F0002000A090608436060C1
:1009E000286A410B0120C003491C8840E1680906C0
:1009F0000A0F8649895CC8408549086085480068B7
:100A0000FFF77AFD002817D128E0FFF753FD801B80
:100A10000228A1D820688005F7D56068072149031E
:100A20008843296A084360606068297F0002000AE1
:100A300009060843606011E0E1E02168FF20013011
:100A400081432160FFF736FD064604E0FFF732FDE3
:100A5000801B022872D820688005F7D428786E4E53
:100A6000000724D568690028306910D001210843A7
:100A70003061FFF71FFD009005E0FFF71BFD0099B7
:100A8000401A02285AD830698007F6D50FE040088E
:100A900040003061FFF70EFD009005E0FFF70AFD12
:100AA0000099401A022849D830698007F6D428787E
:100AB000400765D500200290A06BC00006D4A06B53
:100AC000012109070843A0630120029053480168EF
:100AD000C90511D40168821511430160FFF7EAFCD2
:100AE000009005E0FFF7E6FC0099401A642825D83D
:100AF0004A480068C005F5D5FF20AA680130824247
:100B000003D131690143316111E001218902002AD9
:100B100007D005231B029A4203D132690A4332618E
:100B2000EFE7326982433261306988433061A868F7
:100B300000280FD0FFF7BEFC009007E05EE0FFF753
:100B4000B9FC0099411A3648814257D8306980056E
:100B5000F5D50DE0FFF7AEFC009006E0FFF7AAFC2C
:100B60000099411A2E48814248D830698005F5D451
:100B70000298002804D0A06B012109078843A063D4
:100B8000686A002865D00C2F4CD001263606022852
:100B9000206805D0B0432060FFF78CFC05462FE0AD
:100BA000B0432060FFF786FC074604E0FFF782FCB5
:100BB000C01B022822D820688001F7D4E96AA86AFD
:100BC000E2680843296BFD231B049A431143084341
:100BD000E060206830432060FFF76CFC054604E0CD
:100BE000FFF768FC401B022808D820688001F7D571
:100BF0002FE0FFF75FFC401B022801D90320FEBD58
:100C000020688001F5D424E0001002402C15000873
:100C1000100000200800002040100240007000403A
:100C2000881300000128EAD0E06801210904AA6ABB
:100C3000014091420BD10F218904EA6A014091429F
:100C400005D1032189050840296B884201D0012084
:100C5000FEBD0020FEBD0000F0B502462032137E2E
:100C6000012B1BD0012616760223537605686B688C
:100C7000AC687027BB430F681F436F600068B30701
:100C8000984202D0064B984204D1802349689C4385
:100C900021438160567600201076F0BD0220F0BD21
:100CA0000008014070B5050005D02C462034607E58
:100CB000002802D006E0012070BD002020762846E2
:100CC00000F010F802206076291D286800F0D2F9A3
:100CD0000120A077A076E07620776077607600200C
:100CE00070BD000010B500680121890788420CD151
:100CF0000648816B012211438163002211460F20B7
:100D0000FFF74AFC0F20FFF73BFC10BD001002402C
:100D1000014620314A7E012A01D00120704702227B
:100D20004A760268D36801210B43D36000688A07C2
:100D3000904202D0064A904204D182685207520F74
:100D4000062A02D002680A430260002070470000B1
:100D500000080140F8B5054604462035287E0128E4
:100D600017D001262E7602206876226890687727B1
:100D7000FF23B8431B02984390600A68502A31D081
:100D80000EDC202A4BD006DC002A48D0102A3AD1AB
:100D900045E00220F8BD302A41D0402A33D136E068
:100DA000602A27D0702A12D001200003121A2AD0FC
:100DB000824228D1CB684A688968206800F07EF9B1
:100DC0002068816801229203114381601BE0CB6897
:100DD0004A688968206800F071F92168886838439A
:100DE000886010E0CA684968206800F07AF95021EC
:100DF000206806E0CA684968206800F083F960212D
:100E0000206800F066F96E7600202876F8BDCA6882
:100E10004968206800F065F940212068F1E7114633
:100E20002068EEE7704770B5044600680169002548
:100E3000C9438907002915DBC168C943890711D453
:100E4000E91E016101202076206880698007204624
:100E500002D0FFF7E7FF04E000F078F8204600F04A
:100E600076F8257620680169C943490717D4C16817
:100E7000C943490713D40421C943016102202076E4
:100E8000206880698005800F204602D0FFF7CAFFE6
:100E900004E000F05BF8204600F059F82576206861
:100EA0000169C943090716D4C168C943090712D4A7
:100EB0000821C9430161042020762068C0698007A9
:100EC000204602D0FFF7AEFF04E000F03FF82046D6
:100ED00000F03DF8257620680169C943C90617D49A
:100EE000C168C943C90613D41021C9430161082050
:100EF00020762068C0698005800F204602D0FFF769
:100F000091FF04E000F022F8204600F020F825765A
:100F100020680169C943C90708D1C168C943C90725
:100F200004D1891E0161204600F012F82068016991
:100F3000C943490609D4C168C943490605D44021BB
:100F4000C9430161204600F017F870BD7047704733
:100F500010B5006801218907884202D1044A0121A5
:100F600011700449884201D1FFF7AAFA10BD0000B0
:100F700000000020000801407047FEE710B586B071
:100F800000240094012116480194029403940494CF
:100F90008907059401607D218901846041600461B5
:100FA0000A214461C160FFF77DFE002801D072B6BE
:100FB000FEE701200003009069460948FFF7CAFEDA
:100FC000002801D072B6FEE7049404A904480594F1
:100FD000FFF742FE002801D072B6FEE706B010BD52
:100FE00018000020FEE770477047704710B592B0B8
:100FF00034216846FFF7F9F814210DA8FFF7F5F83A
:10100000124801680322D2029143C2148918016078
:101010000120009000040024019009946846FFF725
:1010200001FC002801D072B6FEE70F200D900220CF
:101030000E900F941094002111940DA8FFF7B8FAA8
:10104000002801D072B6FEE712B010BD007000405B
:101050007047000010B50248FFF7E5FE10BD000024
:101060007000002010B50248FFF7DDFE10BD000043
:101070001800002030B5026801239B070E4C9842EF
:1010800001D0A04203D17025AA434D682A4398425B
:1010900001D0A04204D103231B029A43CB681A4318
:1010A00080239A430B691A4302608A68C262096806
:1010B00081620121416130BD0008014030B5846882
:1010C000FF252D021B021343AC430B4323438360D4
:1010D00030BD826870239A430A4307210A43826025
:1010E000704730B5036A046A640864000462846966
:1010F000F025AC43120122430A24A3430B4382612F
:10110000036230BD30B5036A1024A34303628469CF
:10111000036A0F252D031203AC432243A024A343EB
:10112000090119438261016230BDF8B5040C8BB22C
:10113000264682B25E430D0C1046370C58433604E7
:1011400080190021794116466E43370C3604801908
:10115000794126466E438919F8BD00008307FF22B6
:10116000DB0E9A408907090E9940002808DB8308A6
:1011700009489B001B181868904308431860704783
:101180000007000F0838830804489B001B18D86923
:1011900090430843D861704700E400E000ED00E0B0
:1011A00010B57F200021C005FFF7C0F810BD10B5B5
:1011B0000121FFF7F9F810BD10B500210846FFF72F
:1011C000B5F810BD02E008C8121F08C1002AFAD104
:1011D00070477047002001E001C1121F002AFBD1B7
:1011E00070470000014908607047000014000020AB
:1011F000F7B504468EB000690290A0680990E768D0
:1012000010980790002006906068069988424CD993
:1012100000200F9D00900646019022E06169386829
:10122000FEF7EEFF25490390FFF743F800F062F860
:101230000099FEF7E5FF0090099801682868FFF71C
:1012400030F80146FFF735F80399FFF76FF8019979
:10125000FEF7D6FF019009982D1D001D761C3F1D3D
:1012600009902068B042D9D8BF2109060098FFF73D
:1012700020F805460021C9430198FFF795F8294653
:10128000FFF713F80546029802990068091D0291BC
:1012900000F030F82946FEF7B3FF07990860079879
:1012A000001D07900698401CADE701460AAB0BAA4B
:1012B000109800F005F80A9811B0F0BDDB0FC94096
:1012C000FFB540C881B000270446029D09E001CC6B
:1012D000009001463046FFF77FF802D20298009E48
:1012E000471B6D1EF3D1039806600498076005B094
:1012F000F0BD0000F8B50121C9057F220026411A82
:10130000120691427BD20121C9044118CA1501235A
:1013100041021B07C9184D0F7F217F3A2B05C905D4
:10132000B6185C18D205871A3046284345D02146A6
:101330003846FEF765FF009021463846FEF7B1FFBC
:101340000099FEF7F3FF07460146FEF7B2FF3E495C
:101350000090FEF7AEFF3D49FEF752FF04463846C7
:101360000099FEF7A6FF2146FEF7A3FF044630468C
:10137000FFF726F806463649FEF79BFF3549AD00D4
:1013800079444959FEF73CFF2146FEF739FF0446F0
:1013900001213846FFF708F82146FEF731FF0446E1
:1013A00030462D49FEF785FF2C4979444959FEF70F
:1013B00027FF2146FEF724FFF8BD3846FEF771FFF0
:1013C00005462749FEF775FF2649FEF719FF29460E
:1013D000FEF76FFF2449FEF713FF2946FEF769FF6A
:1013E0002249FEF70DFF044629460846FEF761FF35
:1013F0002146FEF75EFF01462846DBE7FFE7FF22B6
:1014000041001206914202D9FFF7D1FEF8BDFF223A
:10141000D2059042FAD01402A04205D90120FFF76C
:10142000E1FEFFF7C9FEF8BD410005D01626F643E0
:101430001721FEF7B9FF66E70220FFF7D3FEFFF79B
:10144000AFFE6040F8BD000066F1CC3EAAAA2A3F7C
:10145000F4FD0538EC0100000070313FA2010000EE
:1014600021ED423E0A1180BEC1ABAA3EFFFFFFBE86
:101470001A4888B002210160032141601849816047
:101480001831C1601831016116494161FFF720F838
:10149000FFF7ACFD1448C26A80210A43C262C06AE9
:1014A00008400790FFF76AFDFFF77AF8FF208005F4
:1014B00003907F20C0050D4C002504902078002863
:1014C000FCD06A4603A90548FFF792FE06AB05AAC1
:1014D00003216846FFF7F4FE2570EFE7580000206F
:1014E000F0140008C1BD943100100240000000203B
:1014F000211BBA3F964D5F3FF86DC3BF6A38673F07
:10150000AA0F1DBE95FC3FC0FBCF803F8E5F673F9B
:1015100093DF823F60E1463F09968F3F637D9D3FA9
:10152000ABAAAA3EABAAAA3EABAAAA3E0000000004
:10153000000000000102030406070809030406086E
:101540000C1018203000000000010203040000000D
:10155000000000000030F13D0070643E0000A33E3A
:101560000090CF3E0090F83E00400F3F00E0203F4B
:101570000000000015B78337CDE37B380EE1C53896
:1015800060F69138AF5F0F38E1BC3E3823F447393D
:10159000B01500080000002018000000C411000869
:1015A000C81500081800002098040000D411000895
:1015B0000000000001000000040000000000000026
:0815C000000020000000000003
:04000005080000C12E
:00000001FF
